{
  "src/TokenFactory.sol": {
    "TokenFactory": {
      "abi": [
        {
          "type": "constructor",
          "inputs": [],
          "stateMutability": "nonpayable"
        },
        {
          "type": "function",
          "name": "deployToken",
          "inputs": [
            {
              "name": "symbol",
              "type": "string",
              "internalType": "string"
            },
            {
              "name": "contractBytecode",
              "type": "bytes",
              "internalType": "bytes"
            }
          ],
          "outputs": [
            {
              "name": "addr",
              "type": "address",
              "internalType": "address"
            }
          ],
          "stateMutability": "nonpayable"
        },
        {
          "type": "function",
          "name": "getTokenAddressFromSymbol",
          "inputs": [
            {
              "name": "symbol",
              "type": "string",
              "internalType": "string"
            }
          ],
          "outputs": [
            {
              "name": "addr",
              "type": "address",
              "internalType": "address"
            }
          ],
          "stateMutability": "view"
        },
        {
          "type": "function",
          "name": "owner",
          "inputs": [],
          "outputs": [
            {
              "name": "",
              "type": "address",
              "internalType": "address"
            }
          ],
          "stateMutability": "view"
        },
        {
          "type": "function",
          "name": "renounceOwnership",
          "inputs": [],
          "outputs": [],
          "stateMutability": "nonpayable"
        },
        {
          "type": "function",
          "name": "transferOwnership",
          "inputs": [
            {
              "name": "newOwner",
              "type": "address",
              "internalType": "address"
            }
          ],
          "outputs": [],
          "stateMutability": "nonpayable"
        },
        {
          "type": "event",
          "name": "OwnershipTransferred",
          "inputs": [
            {
              "name": "previousOwner",
              "type": "address",
              "indexed": true,
              "internalType": "address"
            },
            {
              "name": "newOwner",
              "type": "address",
              "indexed": true,
              "internalType": "address"
            }
          ],
          "anonymous": false
        },
        {
          "type": "event",
          "name": "TokenDeployed",
          "inputs": [
            {
              "name": "symbol",
              "type": "string",
              "indexed": false,
              "internalType": "string"
            },
            {
              "name": "addr",
              "type": "address",
              "indexed": false,
              "internalType": "address"
            }
          ],
          "anonymous": false
        },
        {
          "type": "error",
          "name": "OwnableInvalidOwner",
          "inputs": [
            {
              "name": "owner",
              "type": "address",
              "internalType": "address"
            }
          ]
        },
        {
          "type": "error",
          "name": "OwnableUnauthorizedAccount",
          "inputs": [
            {
              "name": "account",
              "type": "address",
              "internalType": "address"
            }
          ]
        }
      ],
      "userdoc": {},
      "devdoc": {},
      "evm": {
        "bytecode": {
          "object": "608060405234801561001057600080fd5b50338061003757604051631e4fbdf760e01b81526000600482015260240160405180910390fd5b61004081610046565b50610096565b600080546001600160a01b038381166001600160a01b0319831681178455604051919092169283917f8be0079c531659141344cd1fd0a4f28419497f9722a3daafe3b4186f6b6457e09190a35050565b6104af806100a56000396000f3fe608060405234801561001057600080fd5b50600436106100575760003560e01c80633bcb30bb1461005c578063715018a61461008b5780638da5cb5b14610095578063f2fde38b146100a6578063feccbe48146100b9575b600080fd5b61006f61006a366004610317565b6100cc565b6040516001600160a01b03909116815260200160405180910390f35b61009361015f565b005b6000546001600160a01b031661006f565b6100936100b436600461038f565b610173565b61006f6100c73660046103b8565b6101b6565b60006100d66101e7565b8151602083016000f09050806001846040516100f29190610419565b90815260405190819003602001812080546001600160a01b03939093166001600160a01b0319909316929092179091557fbf90b5a1ec9763e8bf4b9245cef0c28db92bab309fc2c5177f17814f38246938906101519085908490610435565b60405180910390a192915050565b6101676101e7565b6101716000610214565b565b61017b6101e7565b6001600160a01b0381166101aa57604051631e4fbdf760e01b8152600060048201526024015b60405180910390fd5b6101b381610214565b50565b60006001826040516101c89190610419565b908152604051908190036020019020546001600160a01b031692915050565b6000546001600160a01b031633146101715760405163118cdaa760e01b81523360048201526024016101a1565b600080546001600160a01b038381166001600160a01b0319831681178455604051919092169283917f8be0079c531659141344cd1fd0a4f28419497f9722a3daafe3b4186f6b6457e09190a35050565b634e487b7160e01b600052604160045260246000fd5b600067ffffffffffffffff8084111561029557610295610264565b604051601f8501601f19908116603f011681019082821181831017156102bd576102bd610264565b816040528093508581528686860111156102d657600080fd5b858560208301376000602087830101525050509392505050565b600082601f83011261030157600080fd5b6103108383356020850161027a565b9392505050565b6000806040838503121561032a57600080fd5b823567ffffffffffffffff8082111561034257600080fd5b61034e868387016102f0565b9350602085013591508082111561036457600080fd5b508301601f8101851361037657600080fd5b6103858582356020840161027a565b9150509250929050565b6000602082840312156103a157600080fd5b81356001600160a01b038116811461031057600080fd5b6000602082840312156103ca57600080fd5b813567ffffffffffffffff8111156103e157600080fd5b6103ed848285016102f0565b949350505050565b60005b838110156104105781810151838201526020016103f8565b50506000910152565b6000825161042b8184602087016103f5565b9190910192915050565b60408152600083518060408401526104548160608501602088016103f5565b6001600160a01b0393909316602083015250601f91909101601f19160160600191905056fea2646970667358221220d9dfa66af692d34e7bd3ba97cd4132502820a9c8a9b9b8e5034de3087ed796ee64736f6c63430008140033",
          "opcodes": "PUSH1 0x80 PUSH1 0x40 MSTORE CALLVALUE DUP1 ISZERO PUSH2 0x10 JUMPI PUSH1 0x0 DUP1 REVERT JUMPDEST POP CALLER DUP1 PUSH2 0x37 JUMPI PUSH1 0x40 MLOAD PUSH4 0x1E4FBDF7 PUSH1 0xE0 SHL DUP2 MSTORE PUSH1 0x0 PUSH1 0x4 DUP3 ADD MSTORE PUSH1 0x24 ADD PUSH1 0x40 MLOAD DUP1 SWAP2 SUB SWAP1 REVERT JUMPDEST PUSH2 0x40 DUP2 PUSH2 0x46 JUMP JUMPDEST POP PUSH2 0x96 JUMP JUMPDEST PUSH1 0x0 DUP1 SLOAD PUSH1 0x1 PUSH1 0x1 PUSH1 0xA0 SHL SUB DUP4 DUP2 AND PUSH1 0x1 PUSH1 0x1 PUSH1 0xA0 SHL SUB NOT DUP4 AND DUP2 OR DUP5 SSTORE PUSH1 0x40 MLOAD SWAP2 SWAP1 SWAP3 AND SWAP3 DUP4 SWAP2 PUSH32 0x8BE0079C531659141344CD1FD0A4F28419497F9722A3DAAFE3B4186F6B6457E0 SWAP2 SWAP1 LOG3 POP POP JUMP JUMPDEST PUSH2 0x4AF DUP1 PUSH2 0xA5 PUSH1 0x0 CODECOPY PUSH1 0x0 RETURN INVALID PUSH1 0x80 PUSH1 0x40 MSTORE CALLVALUE DUP1 ISZERO PUSH2 0x10 JUMPI PUSH1 0x0 DUP1 REVERT JUMPDEST POP PUSH1 0x4 CALLDATASIZE LT PUSH2 0x57 JUMPI PUSH1 0x0 CALLDATALOAD PUSH1 0xE0 SHR DUP1 PUSH4 0x3BCB30BB EQ PUSH2 0x5C JUMPI DUP1 PUSH4 0x715018A6 EQ PUSH2 0x8B JUMPI DUP1 PUSH4 0x8DA5CB5B EQ PUSH2 0x95 JUMPI DUP1 PUSH4 0xF2FDE38B EQ PUSH2 0xA6 JUMPI DUP1 PUSH4 0xFECCBE48 EQ PUSH2 0xB9 JUMPI JUMPDEST PUSH1 0x0 DUP1 REVERT JUMPDEST PUSH2 0x6F PUSH2 0x6A CALLDATASIZE PUSH1 0x4 PUSH2 0x317 JUMP JUMPDEST PUSH2 0xCC JUMP JUMPDEST PUSH1 0x40 MLOAD PUSH1 0x1 PUSH1 0x1 PUSH1 0xA0 SHL SUB SWAP1 SWAP2 AND DUP2 MSTORE PUSH1 0x20 ADD PUSH1 0x40 MLOAD DUP1 SWAP2 SUB SWAP1 RETURN JUMPDEST PUSH2 0x93 PUSH2 0x15F JUMP JUMPDEST STOP JUMPDEST PUSH1 0x0 SLOAD PUSH1 0x1 PUSH1 0x1 PUSH1 0xA0 SHL SUB AND PUSH2 0x6F JUMP JUMPDEST PUSH2 0x93 PUSH2 0xB4 CALLDATASIZE PUSH1 0x4 PUSH2 0x38F JUMP JUMPDEST PUSH2 0x173 JUMP JUMPDEST PUSH2 0x6F PUSH2 0xC7 CALLDATASIZE PUSH1 0x4 PUSH2 0x3B8 JUMP JUMPDEST PUSH2 0x1B6 JUMP JUMPDEST PUSH1 0x0 PUSH2 0xD6 PUSH2 0x1E7 JUMP JUMPDEST DUP2 MLOAD PUSH1 0x20 DUP4 ADD PUSH1 0x0 CREATE SWAP1 POP DUP1 PUSH1 0x1 DUP5 PUSH1 0x40 MLOAD PUSH2 0xF2 SWAP2 SWAP1 PUSH2 0x419 JUMP JUMPDEST SWAP1 DUP2 MSTORE PUSH1 0x40 MLOAD SWAP1 DUP2 SWAP1 SUB PUSH1 0x20 ADD DUP2 KECCAK256 DUP1 SLOAD PUSH1 0x1 PUSH1 0x1 PUSH1 0xA0 SHL SUB SWAP4 SWAP1 SWAP4 AND PUSH1 0x1 PUSH1 0x1 PUSH1 0xA0 SHL SUB NOT SWAP1 SWAP4 AND SWAP3 SWAP1 SWAP3 OR SWAP1 SWAP2 SSTORE PUSH32 0xBF90B5A1EC9763E8BF4B9245CEF0C28DB92BAB309FC2C5177F17814F38246938 SWAP1 PUSH2 0x151 SWAP1 DUP6 SWAP1 DUP5 SWAP1 PUSH2 0x435 JUMP JUMPDEST PUSH1 0x40 MLOAD DUP1 SWAP2 SUB SWAP1 LOG1 SWAP3 SWAP2 POP POP JUMP JUMPDEST PUSH2 0x167 PUSH2 0x1E7 JUMP JUMPDEST PUSH2 0x171 PUSH1 0x0 PUSH2 0x214 JUMP JUMPDEST JUMP JUMPDEST PUSH2 0x17B PUSH2 0x1E7 JUMP JUMPDEST PUSH1 0x1 PUSH1 0x1 PUSH1 0xA0 SHL SUB DUP2 AND PUSH2 0x1AA JUMPI PUSH1 0x40 MLOAD PUSH4 0x1E4FBDF7 PUSH1 0xE0 SHL DUP2 MSTORE PUSH1 0x0 PUSH1 0x4 DUP3 ADD MSTORE PUSH1 0x24 ADD JUMPDEST PUSH1 0x40 MLOAD DUP1 SWAP2 SUB SWAP1 REVERT JUMPDEST PUSH2 0x1B3 DUP2 PUSH2 0x214 JUMP JUMPDEST POP JUMP JUMPDEST PUSH1 0x0 PUSH1 0x1 DUP3 PUSH1 0x40 MLOAD PUSH2 0x1C8 SWAP2 SWAP1 PUSH2 0x419 JUMP JUMPDEST SWAP1 DUP2 MSTORE PUSH1 0x40 MLOAD SWAP1 DUP2 SWAP1 SUB PUSH1 0x20 ADD SWAP1 KECCAK256 SLOAD PUSH1 0x1 PUSH1 0x1 PUSH1 0xA0 SHL SUB AND SWAP3 SWAP2 POP POP JUMP JUMPDEST PUSH1 0x0 SLOAD PUSH1 0x1 PUSH1 0x1 PUSH1 0xA0 SHL SUB AND CALLER EQ PUSH2 0x171 JUMPI PUSH1 0x40 MLOAD PUSH4 0x118CDAA7 PUSH1 0xE0 SHL DUP2 MSTORE CALLER PUSH1 0x4 DUP3 ADD MSTORE PUSH1 0x24 ADD PUSH2 0x1A1 JUMP JUMPDEST PUSH1 0x0 DUP1 SLOAD PUSH1 0x1 PUSH1 0x1 PUSH1 0xA0 SHL SUB DUP4 DUP2 AND PUSH1 0x1 PUSH1 0x1 PUSH1 0xA0 SHL SUB NOT DUP4 AND DUP2 OR DUP5 SSTORE PUSH1 0x40 MLOAD SWAP2 SWAP1 SWAP3 AND SWAP3 DUP4 SWAP2 PUSH32 0x8BE0079C531659141344CD1FD0A4F28419497F9722A3DAAFE3B4186F6B6457E0 SWAP2 SWAP1 LOG3 POP POP JUMP JUMPDEST PUSH4 0x4E487B71 PUSH1 0xE0 SHL PUSH1 0x0 MSTORE PUSH1 0x41 PUSH1 0x4 MSTORE PUSH1 0x24 PUSH1 0x0 REVERT JUMPDEST PUSH1 0x0 PUSH8 0xFFFFFFFFFFFFFFFF DUP1 DUP5 GT ISZERO PUSH2 0x295 JUMPI PUSH2 0x295 PUSH2 0x264 JUMP JUMPDEST PUSH1 0x40 MLOAD PUSH1 0x1F DUP6 ADD PUSH1 0x1F NOT SWAP1 DUP2 AND PUSH1 0x3F ADD AND DUP2 ADD SWAP1 DUP3 DUP3 GT DUP2 DUP4 LT OR ISZERO PUSH2 0x2BD JUMPI PUSH2 0x2BD PUSH2 0x264 JUMP JUMPDEST DUP2 PUSH1 0x40 MSTORE DUP1 SWAP4 POP DUP6 DUP2 MSTORE DUP7 DUP7 DUP7 ADD GT ISZERO PUSH2 0x2D6 JUMPI PUSH1 0x0 DUP1 REVERT JUMPDEST DUP6 DUP6 PUSH1 0x20 DUP4 ADD CALLDATACOPY PUSH1 0x0 PUSH1 0x20 DUP8 DUP4 ADD ADD MSTORE POP POP POP SWAP4 SWAP3 POP POP POP JUMP JUMPDEST PUSH1 0x0 DUP3 PUSH1 0x1F DUP4 ADD SLT PUSH2 0x301 JUMPI PUSH1 0x0 DUP1 REVERT JUMPDEST PUSH2 0x310 DUP4 DUP4 CALLDATALOAD PUSH1 0x20 DUP6 ADD PUSH2 0x27A JUMP JUMPDEST SWAP4 SWAP3 POP POP POP JUMP JUMPDEST PUSH1 0x0 DUP1 PUSH1 0x40 DUP4 DUP6 SUB SLT ISZERO PUSH2 0x32A JUMPI PUSH1 0x0 DUP1 REVERT JUMPDEST DUP3 CALLDATALOAD PUSH8 0xFFFFFFFFFFFFFFFF DUP1 DUP3 GT ISZERO PUSH2 0x342 JUMPI PUSH1 0x0 DUP1 REVERT JUMPDEST PUSH2 0x34E DUP7 DUP4 DUP8 ADD PUSH2 0x2F0 JUMP JUMPDEST SWAP4 POP PUSH1 0x20 DUP6 ADD CALLDATALOAD SWAP2 POP DUP1 DUP3 GT ISZERO PUSH2 0x364 JUMPI PUSH1 0x0 DUP1 REVERT JUMPDEST POP DUP4 ADD PUSH1 0x1F DUP2 ADD DUP6 SGT PUSH2 0x376 JUMPI PUSH1 0x0 DUP1 REVERT JUMPDEST PUSH2 0x385 DUP6 DUP3 CALLDATALOAD PUSH1 0x20 DUP5 ADD PUSH2 0x27A JUMP JUMPDEST SWAP2 POP POP SWAP3 POP SWAP3 SWAP1 POP JUMP JUMPDEST PUSH1 0x0 PUSH1 0x20 DUP3 DUP5 SUB SLT ISZERO PUSH2 0x3A1 JUMPI PUSH1 0x0 DUP1 REVERT JUMPDEST DUP2 CALLDATALOAD PUSH1 0x1 PUSH1 0x1 PUSH1 0xA0 SHL SUB DUP2 AND DUP2 EQ PUSH2 0x310 JUMPI PUSH1 0x0 DUP1 REVERT JUMPDEST PUSH1 0x0 PUSH1 0x20 DUP3 DUP5 SUB SLT ISZERO PUSH2 0x3CA JUMPI PUSH1 0x0 DUP1 REVERT JUMPDEST DUP2 CALLDATALOAD PUSH8 0xFFFFFFFFFFFFFFFF DUP2 GT ISZERO PUSH2 0x3E1 JUMPI PUSH1 0x0 DUP1 REVERT JUMPDEST PUSH2 0x3ED DUP5 DUP3 DUP6 ADD PUSH2 0x2F0 JUMP JUMPDEST SWAP5 SWAP4 POP POP POP POP JUMP JUMPDEST PUSH1 0x0 JUMPDEST DUP4 DUP2 LT ISZERO PUSH2 0x410 JUMPI DUP2 DUP2 ADD MLOAD DUP4 DUP3 ADD MSTORE PUSH1 0x20 ADD PUSH2 0x3F8 JUMP JUMPDEST POP POP PUSH1 0x0 SWAP2 ADD MSTORE JUMP JUMPDEST PUSH1 0x0 DUP3 MLOAD PUSH2 0x42B DUP2 DUP5 PUSH1 0x20 DUP8 ADD PUSH2 0x3F5 JUMP JUMPDEST SWAP2 SWAP1 SWAP2 ADD SWAP3 SWAP2 POP POP JUMP JUMPDEST PUSH1 0x40 DUP2 MSTORE PUSH1 0x0 DUP4 MLOAD DUP1 PUSH1 0x40 DUP5 ADD MSTORE PUSH2 0x454 DUP2 PUSH1 0x60 DUP6 ADD PUSH1 0x20 DUP9 ADD PUSH2 0x3F5 JUMP JUMPDEST PUSH1 0x1 PUSH1 0x1 PUSH1 0xA0 SHL SUB SWAP4 SWAP1 SWAP4 AND PUSH1 0x20 DUP4 ADD MSTORE POP PUSH1 0x1F SWAP2 SWAP1 SWAP2 ADD PUSH1 0x1F NOT AND ADD PUSH1 0x60 ADD SWAP2 SWAP1 POP JUMP INVALID LOG2 PUSH5 0x6970667358 0x22 SLT KECCAK256 0xD9 0xDF 0xA6 PUSH11 0xF692D34E7BD3BA97CD4132 POP 0x28 KECCAK256 0xA9 0xC8 0xA9 0xB9 0xB8 0xE5 SUB 0x4D 0xE3 ADDMOD PUSH31 0xD796EE64736F6C634300081400330000000000000000000000000000000000 ",
          "linkReferences": {}
        },
        "methodIdentifiers": {
          "deployToken(string,bytes)": "3bcb30bb",
          "getTokenAddressFromSymbol(string)": "feccbe48",
          "owner()": "8da5cb5b",
          "renounceOwnership()": "715018a6",
          "transferOwnership(address)": "f2fde38b"
        }
      }
    }
  }
}