{"abi":[{"type":"constructor","inputs":[{"name":"_token","type":"address","internalType":"contract IERC20"}],"stateMutability":"nonpayable"},{"type":"function","name":"approveTo","inputs":[{"name":"target","type":"address","internalType":"address"},{"name":"amount","type":"uint256","internalType":"uint256"}],"outputs":[],"stateMutability":"nonpayable"},{"type":"function","name":"owner","inputs":[],"outputs":[{"name":"","type":"address","internalType":"address"}],"stateMutability":"view"},{"type":"function","name":"renounceOwnership","inputs":[],"outputs":[],"stateMutability":"nonpayable"},{"type":"function","name":"token","inputs":[],"outputs":[{"name":"","type":"address","internalType":"contract IERC20"}],"stateMutability":"view"},{"type":"function","name":"transferOwnership","inputs":[{"name":"newOwner","type":"address","internalType":"address"}],"outputs":[],"stateMutability":"nonpayable"},{"type":"event","name":"OwnershipTransferred","inputs":[{"name":"previousOwner","type":"address","indexed":true,"internalType":"address"},{"name":"newOwner","type":"address","indexed":true,"internalType":"address"}],"anonymous":false},{"type":"error","name":"OwnableInvalidOwner","inputs":[{"name":"owner","type":"address","internalType":"address"}]},{"type":"error","name":"OwnableUnauthorizedAccount","inputs":[{"name":"account","type":"address","internalType":"address"}]}],"bytecode":{"object":"0x608060405234801561001057600080fd5b506040516103f33803806103f383398101604081905261002f916100d4565b338061005557604051631e4fbdf760e01b81526000600482015260240160405180910390fd5b61005e81610084565b50600180546001600160a01b0319166001600160a01b0392909216919091179055610104565b600080546001600160a01b038381166001600160a01b0319831681178455604051919092169283917f8be0079c531659141344cd1fd0a4f28419497f9722a3daafe3b4186f6b6457e09190a35050565b6000602082840312156100e657600080fd5b81516001600160a01b03811681146100fd57600080fd5b9392505050565b6102e0806101136000396000f3fe608060405234801561001057600080fd5b50600436106100575760003560e01c80631f64e71f1461005c578063715018a6146100715780638da5cb5b14610079578063f2fde38b146100a2578063fc0c546a146100b5575b600080fd5b61006f61006a36600461023c565b6100c8565b005b61006f61014c565b6000546001600160a01b03165b6040516001600160a01b03909116815260200160405180910390f35b61006f6100b0366004610266565b610160565b600154610086906001600160a01b031681565b6100d06101a3565b60015460405163095ea7b360e01b81526001600160a01b038481166004830152602482018490529091169063095ea7b3906044016020604051808303816000875af1158015610123573d6000803e3d6000fd5b505050506040513d601f19601f820116820180604052508101906101479190610288565b505050565b6101546101a3565b61015e60006101d0565b565b6101686101a3565b6001600160a01b03811661019757604051631e4fbdf760e01b8152600060048201526024015b60405180910390fd5b6101a0816101d0565b50565b6000546001600160a01b0316331461015e5760405163118cdaa760e01b815233600482015260240161018e565b600080546001600160a01b038381166001600160a01b0319831681178455604051919092169283917f8be0079c531659141344cd1fd0a4f28419497f9722a3daafe3b4186f6b6457e09190a35050565b80356001600160a01b038116811461023757600080fd5b919050565b6000806040838503121561024f57600080fd5b61025883610220565b946020939093013593505050565b60006020828403121561027857600080fd5b61028182610220565b9392505050565b60006020828403121561029a57600080fd5b8151801515811461028157600080fdfea26469706673582212201d5a0630f21c51838259c460d78f2e9ebd287f0a85eb3dc72cd3f7c1b453a38a64736f6c63430008140033","linkReferences":{}},"methodIdentifiers":{"approveTo(address,uint256)":"1f64e71f","owner()":"8da5cb5b","renounceOwnership()":"715018a6","token()":"fc0c546a","transferOwnership(address)":"f2fde38b"},"id":42}