{"abi":[{"type":"constructor","inputs":[],"stateMutability":"nonpayable"},{"type":"function","name":"deployToken","inputs":[{"name":"symbol","type":"string","internalType":"string"},{"name":"contractBytecode","type":"bytes","internalType":"bytes"}],"outputs":[{"name":"addr","type":"address","internalType":"address"}],"stateMutability":"nonpayable"},{"type":"function","name":"getTokenAddressFromSymbol","inputs":[{"name":"symbol","type":"string","internalType":"string"}],"outputs":[{"name":"addr","type":"address","internalType":"address"}],"stateMutability":"view"},{"type":"function","name":"owner","inputs":[],"outputs":[{"name":"","type":"address","internalType":"address"}],"stateMutability":"view"},{"type":"function","name":"renounceOwnership","inputs":[],"outputs":[],"stateMutability":"nonpayable"},{"type":"function","name":"transferOwnership","inputs":[{"name":"newOwner","type":"address","internalType":"address"}],"outputs":[],"stateMutability":"nonpayable"},{"type":"event","name":"OwnershipTransferred","inputs":[{"name":"previousOwner","type":"address","indexed":true,"internalType":"address"},{"name":"newOwner","type":"address","indexed":true,"internalType":"address"}],"anonymous":false},{"type":"event","name":"TokenDeployed","inputs":[{"name":"symbol","type":"string","indexed":false,"internalType":"string"},{"name":"addr","type":"address","indexed":false,"internalType":"address"}],"anonymous":false},{"type":"error","name":"OwnableInvalidOwner","inputs":[{"name":"owner","type":"address","internalType":"address"}]},{"type":"error","name":"OwnableUnauthorizedAccount","inputs":[{"name":"account","type":"address","internalType":"address"}]}],"bytecode":{"object":"0x608060405234801561001057600080fd5b50338061003757604051631e4fbdf760e01b81526000600482015260240160405180910390fd5b61004081610046565b50610096565b600080546001600160a01b038381166001600160a01b0319831681178455604051919092169283917f8be0079c531659141344cd1fd0a4f28419497f9722a3daafe3b4186f6b6457e09190a35050565b6104af806100a56000396000f3fe608060405234801561001057600080fd5b50600436106100575760003560e01c80633bcb30bb1461005c578063715018a61461008b5780638da5cb5b14610095578063f2fde38b146100a6578063feccbe48146100b9575b600080fd5b61006f61006a366004610317565b6100cc565b6040516001600160a01b03909116815260200160405180910390f35b61009361015f565b005b6000546001600160a01b031661006f565b6100936100b436600461038f565b610173565b61006f6100c73660046103b8565b6101b6565b60006100d66101e7565b8151602083016000f09050806001846040516100f29190610419565b90815260405190819003602001812080546001600160a01b03939093166001600160a01b0319909316929092179091557fbf90b5a1ec9763e8bf4b9245cef0c28db92bab309fc2c5177f17814f38246938906101519085908490610435565b60405180910390a192915050565b6101676101e7565b6101716000610214565b565b61017b6101e7565b6001600160a01b0381166101aa57604051631e4fbdf760e01b8152600060048201526024015b60405180910390fd5b6101b381610214565b50565b60006001826040516101c89190610419565b908152604051908190036020019020546001600160a01b031692915050565b6000546001600160a01b031633146101715760405163118cdaa760e01b81523360048201526024016101a1565b600080546001600160a01b038381166001600160a01b0319831681178455604051919092169283917f8be0079c531659141344cd1fd0a4f28419497f9722a3daafe3b4186f6b6457e09190a35050565b634e487b7160e01b600052604160045260246000fd5b600067ffffffffffffffff8084111561029557610295610264565b604051601f8501601f19908116603f011681019082821181831017156102bd576102bd610264565b816040528093508581528686860111156102d657600080fd5b858560208301376000602087830101525050509392505050565b600082601f83011261030157600080fd5b6103108383356020850161027a565b9392505050565b6000806040838503121561032a57600080fd5b823567ffffffffffffffff8082111561034257600080fd5b61034e868387016102f0565b9350602085013591508082111561036457600080fd5b508301601f8101851361037657600080fd5b6103858582356020840161027a565b9150509250929050565b6000602082840312156103a157600080fd5b81356001600160a01b038116811461031057600080fd5b6000602082840312156103ca57600080fd5b813567ffffffffffffffff8111156103e157600080fd5b6103ed848285016102f0565b949350505050565b60005b838110156104105781810151838201526020016103f8565b50506000910152565b6000825161042b8184602087016103f5565b9190910192915050565b60408152600083518060408401526104548160608501602088016103f5565b6001600160a01b0393909316602083015250601f91909101601f19160160600191905056fea2646970667358221220d9dfa66af692d34e7bd3ba97cd4132502820a9c8a9b9b8e5034de3087ed796ee64736f6c63430008140033","linkReferences":{}},"methodIdentifiers":{"deployToken(string,bytes)":"3bcb30bb","getTokenAddressFromSymbol(string)":"feccbe48","owner()":"8da5cb5b","renounceOwnership()":"715018a6","transferOwnership(address)":"f2fde38b"},"id":43}